{
  "contractName": "Exercise8",
  "abi": [
    {
      "inputs": [
        {
          "internalType": "address",
          "name": "_recipient",
          "type": "address"
        }
      ],
      "stateMutability": "nonpayable",
      "type": "constructor"
    },
    {
      "inputs": [],
      "name": "recipient",
      "outputs": [
        {
          "internalType": "address",
          "name": "",
          "type": "address"
        }
      ],
      "stateMutability": "view",
      "type": "function",
      "constant": true
    },
    {
      "inputs": [],
      "name": "receivePayment",
      "outputs": [],
      "stateMutability": "payable",
      "type": "function",
      "payable": true
    },
    {
      "inputs": [],
      "name": "withdraw",
      "outputs": [],
      "stateMutability": "nonpayable",
      "type": "function"
    }
  ],
  "bytecode": "0x608060405234801561001057600080fd5b5060405161049d38038061049d833981810160405281019061003291906100db565b806000806101000a81548173ffffffffffffffffffffffffffffffffffffffff021916908373ffffffffffffffffffffffffffffffffffffffff16021790555050610108565b600080fd5b600073ffffffffffffffffffffffffffffffffffffffff82169050919050565b60006100a88261007d565b9050919050565b6100b88161009d565b81146100c357600080fd5b50565b6000815190506100d5816100af565b92915050565b6000602082840312156100f1576100f0610078565b5b60006100ff848285016100c6565b91505092915050565b610386806101176000396000f3fe6080604052600436106100345760003560e01c80633ccfd60b1461003957806366d003ac14610050578063835c19f31461007b575b600080fd5b34801561004557600080fd5b5061004e610085565b005b34801561005c57600080fd5b5061006561017c565b6040516100729190610226565b60405180910390f35b6100836101a0565b005b60008054906101000a900473ffffffffffffffffffffffffffffffffffffffff1673ffffffffffffffffffffffffffffffffffffffff163373ffffffffffffffffffffffffffffffffffffffff1614610113576040517f08c379a000000000000000000000000000000000000000000000000000000000815260040161010a9061029e565b60405180910390fd5b60008054906101000a900473ffffffffffffffffffffffffffffffffffffffff1673ffffffffffffffffffffffffffffffffffffffff166108fc479081150290604051600060405180830381858888f19350505050158015610179573d6000803e3d6000fd5b50565b60008054906101000a900473ffffffffffffffffffffffffffffffffffffffff1681565b600034116101e3576040517f08c379a00000000000000000000000000000000000000000000000000000000081526004016101da90610330565b60405180910390fd5b565b600073ffffffffffffffffffffffffffffffffffffffff82169050919050565b6000610210826101e5565b9050919050565b61022081610205565b82525050565b600060208201905061023b6000830184610217565b92915050565b600082825260208201905092915050565b7f566f7573206e276574657320706173206c652064657374696e61746169726500600082015250565b6000610288601f83610241565b915061029382610252565b602082019050919050565b600060208201905081810360008301526102b78161027b565b9050919050565b7f4c65206d6f6e74616e7420646f6974206574726520737570657269657572206160008201527f2030000000000000000000000000000000000000000000000000000000000000602082015250565b600061031a602283610241565b9150610325826102be565b604082019050919050565b600060208201905081810360008301526103498161030d565b905091905056fea2646970667358221220cedd129aff30899843a9482b029dbb636d60287486e22f0bf007e1a4ab8dc0e964736f6c634300080d0033",
  "immutableReferences": {},
  "source": "// SPDX-License-Identifier: MIT\npragma solidity >=0.4.22 <0.9.0;\n\ncontract Exercise8 {\n    address public recipient;\n\n    constructor(address _recipient) {\n        recipient = _recipient;\n    }\n\n    function receivePayment() public payable {\n        require(msg.value > 0, \"Le montant doit etre superieur a 0\");\n    }\n\n    function withdraw() public {\n        require(msg.sender == recipient, \"Vous n'etes pas le destinataire\");\n        payable(recipient).transfer(address(this).balance);\n    }\n}\n",
  "sourcePath": "/Users/mustaphamouaiad/Documents/Projects/ethereum-react-exercise/contracts/Exercise8.sol",
  "compiler": {
    "name": "solc",
    "version": "0.8.13+commit.abaa5c0e.Emscripten.clang"
  },
  "schemaVersion": "3.4.14",
  "updatedAt": "2025-05-17T16:08:34.060Z",
  "networkType": "ethereum",
  "devdoc": {
    "kind": "dev",
    "methods": {},
    "version": 1
  },
  "userdoc": {
    "kind": "user",
    "methods": {},
    "version": 1
  }
}